:100000000C9462000C948A000C948A000C948A0070
:100010000C948A000C948A000C948A000C948A0038
:100020000C948A000C948A000C948A000C948A0028
:100030000C948A000C948A000C948A000C948A0018
:100040000C9451050C948A000C941F050C94F9042F
:100050000C948A000C948A000C948A000C948A00F8
:100060000C949B050C948A000000000024002700DB
:100070002A0000000000250028002B0000000008D6
:10008000000201000003040700000000000000005F
:1000900000000000230026002900040404040404D6
:1000A0000404020202020202030303030303010227
:1000B00004081020408001020408102001020408F6
:1000C0001020BA0611241FBECFEFD8E0DEBFCDBF8F
:1000D00011E0A0E0B1E0E4E8F6E102C005900D9285
:1000E000A837B107D9F723E0A8E7B1E001C01D9216
:1000F000A039B207E1F710E0C2E6D0E004C02197D2
:10010000FE010E943A0BC136D107C9F70E94B90718
:100110000C94400B0C9400002091470281E02132A6
:1001200008F044C0809123028111FCCF80914602E7
:1001300092E09093230291E0909322029FEF90939C
:1001400021021092200220931F02A6E2B2E0EFEFFC
:10015000F1E090E0291331C01092FE019091FE0170
:10016000880F892B8093FE018091FD01813049F534
:100170001092FD018091FE018093BB008091BC0034
:1001800083FDF8CF85EC8093BC0080912302823000
:10019000E1F3809121028F3FB1F080912102803202
:1001A000A1F080912102803391F084E01092250229
:1001B000109247021092240208953D9131939F5F5F
:1001C000C9CF85EEE0CF80E0F1CF82E0EFCF83E0D2
:1001D000EDCF0895089596E0899FD0011124A35092
:1001E000BD4F90967C936E935F9791E091969C9310
:1001F0009197E0916A03F0916B03909169039923C1
:1002000039F0309751F0811108C080911903099499
:10021000309719F05C968C91FACF0895CF92DF92C7
:10022000EF92FF920F931F9396E0899FF0011124A4
:10023000E350FD4F11A2278D30A12130310551F13E
:1002400078F02230310509F451C02330310509F42A
:1002500052C01F910F91FF90EF90DF90CF900895C3
:100260006623B9F361E070E00E94EB002FB7F894C9
:100270008091F3019091F401A091F501B091F60104
:100280002FBF8093550390935603A0935703B093C9
:100290005803DFCF9FB7F894C090F301D090F401DA
:1002A000E090F501F090F6019FBF00915503109189
:1002B00056032091570330915803C01AD10AE20A1D
:1002C000F30A009167031091680330E020E00C15F9
:1002D0001D052E053F0550F462E070E01F910F915F
:1002E000FF90EF90DF90CF900C94EB006111B1CFB5
:1002F00063E070E0F3CF70E060E0F0CFAF92BF92C8
:10030000CF92DF92EF92FF920F931F93CF93DF93E1
:100310006C017B018B01040F151FEB015E01AE1810
:10032000BF08C017D10759F06991D601ED91FC9132
:100330000190F081E02DC6010995892B79F7C5015F
:10034000DF91CF911F910F91FF90EF90DF90CF90B1
:10035000BF90AF900895FC01538D448D252F30E060
:10036000842F90E0821B930B541710F0CF960895C2
:1003700001970895FC01918D828D981761F0A28DEF
:10038000AE0FBF2FB11D5D968C91928D9F5F9F73B5
:10039000928F90E008958FEF9FEF0895FC01918D6B
:1003A000828D981731F0828DE80FF11D858D90E0D8
:1003B00008958FEF9FEF0895FC01918D228D892F75
:1003C00090E0805C9F4F821B91098F73992708955D
:1003D00088E492E00E94DC0121E0892B09F420E00E
:1003E000822F089580E090E0892B29F00E94E80197
:1003F00081110C9400000895FC01A48DA80FB92F61
:10040000B11DA35ABF4F2C91848D90E001968F733C
:100410009927848FA689B7892C93A089B1898C915B
:10042000837080648C93938D848D981306C00288AA
:10043000F389E02D80818F7D80830895EF92FF9274
:100440000F931F93CF93DF93EC0181E0888F9B8DF7
:100450008C8D98131AC0E889F989808185FF15C0B1
:100460009FB7F894EE89FF896083E889F9898081D4
:100470008370806480839FBF81E090E0DF91CF91A3
:100480001F910F91FF90EF900895F62E0B8D10E0C5
:100490000F5F1F4F0F731127E02E8C8D8E110CC034
:1004A0000FB607FCFACFE889F989808185FFF5CF7F
:1004B000CE010E94FC01F1CFEB8DEC0FFD2FF11D61
:1004C000E35AFF4FF0829FB7F8940B8FEA89FB89BC
:1004D00080818062CFCFCF93DF93EC01888D88231A
:1004E000B9F0AA89BB89E889F9898C9185FD03C097
:1004F000808186FD0DC00FB607FCF7CF8C9185FF7C
:10050000F2CF808185FFEDCFCE010E94FC01E9CFC3
:10051000DF91CF910895833081F028F4813099F0F4
:100520008230A9F008958730A9F08830C9F084306E
:10053000B1F4809180008F7D03C0809180008F771F
:1005400080938000089584B58F7784BD089584B525
:100550008F7DFBCF8091B0008F778093B00008959E
:100560008091B0008F7DF9CFCF93DF93282F30E0BB
:10057000F901E458FF4F8491F901E255FF4FD491FE
:10058000F901E656FF4FC491CC23A1F081110E94DE
:100590008B02EC2FF0E0EE0FFF1FE057FF4FA5910D
:1005A000B491EC91ED2381E090E009F480E0DF91DB
:1005B000CF91089580E090E0FACF862F0C94B4029A
:1005C0001F93CF93DF93282F30E0F901E458FF4FBA
:1005D0008491F901E255FF4FD491F901E656FF4F9E
:1005E000C491CC23A9F0162F81110E948B02EC2F0D
:1005F000F0E0EE0FFF1FEE58FF4FA591B4918FB7BB
:10060000F894EC91111108C0D095DE23DC938FBFD4
:10061000DF91CF911F910895DE2BF8CF1092FC014E
:100620001092FB01109225021092470210922302B1
:1006300081E0809322021092FD0161E082E10E943C
:10064000E00261E083E10E94E002E9EBF0E08081FA
:100650008E7F808380818D7F808388E48093B80043
:1006600085E48093BC0089EE90E09093FA0180933A
:10067000F9018AEE90E09093F8018093F7010895D4
:10068000862F642F0C94E002CF93DF9390E0FC015F
:10069000E255FF4F249186569F4FFC018491882399
:1006A000C9F090E0880F991FFC01E859FF4FA59110
:1006B000B491FC01EE58FF4FC591D49161110DC06A
:1006C0009FB7F8948C91209582238C93888128235E
:1006D00028839FBFDF91CF910895623051F49FB777
:1006E000F8943C91822F809583238C93E8812E2B64
:1006F000EFCF8FB7F894EC912E2B2C938FBFEACFCE
:10070000862F642F0C9444033FB7F8948091DC014A
:100710009091DD01A091DE01B091DF0126B5A89B8B
:1007200005C02F3F19F00196A11DB11D3FBFBA2F83
:10073000A92F982F8827BC01CD01620F711D811D43
:10074000911D42E0660F771F881F991F4A95D1F7C8
:1007500008958F929F92AF92BF92CF92DF92EF92C5
:10076000FF924B015C010E9484036B017C010E949B
:1007700084036C197D098E099F09683E73408105C9
:100780009105A8F321E0821A9108A108B10888EE2A
:10079000C80E83E0D81EE11CF11C81149104A10451
:1007A000B10429F7FF90EF90DF90CF90BF90AF900A
:1007B0009F908F900895089585ED8093BC0080915F
:1007C000BC0084FDFCCF1092230208952091B80153
:1007D000260F3327331F21323105ECF420912302F9
:1007E000FC0190E080E0243069F082E00895A0915F
:1007F000B8012191AC0148565E4FA40FB52FB11D31
:100800002C930196861798F38091B801680F609336
:10081000B80180E0089581E008950895E091FC0119
:100820008091FB01E81730F4F0E0E858FE4F80813A
:1008300090E008958FEF9FEF08959091FC018091D3
:10084000FB012FEF3FEF981748F4E92FF0E0E8584D
:10085000FE4F208130E09F5F9093FC01C901089515
:100860008091FB019091FC01891B990B0895CF9217
:10087000DF92EF92FF920F931F93CF93DF937C0150
:10088000CB018A0120912402222389F0EB016B0124
:10089000C40ED51ECC15DD0569F06991D701ED9127
:1008A000FC910190F081E02DC7010995F3CF642FF1
:1008B0000E94E603C801DF91CF911F910F91FF9035
:1008C000EF90DF90CF900895CF93DF931F92CDB735
:1008D000DEB76983209124022223F9F02091470298
:1008E000203258F021E030E0FC013383228390E095
:1008F00080E00F90DF91CF91089580912502E82F3D
:10090000F0E0EA5DFD4F998190838F5F809325022F
:100910008093470281E090E0ECCF61E0CE01019648
:100920000E94E603F7CFFC01248131E030932402DA
:100930002093460210922502109247028385682B6D
:1009400085EE92E00E9464040C948C0090E080E0BC
:1009500008950F931F93CF938C01C62F0E94930489
:100960006C2F6460C8010E9493046C2F6B7FC801D8
:100970000E94930483EC90E00197F1F7CF911F91CF
:100980000F9108950F931F93CF93DF938C01D62F70
:10099000C42F607F642B0E94A90480E1D89FB0011E
:1009A00011246C2BC801DF91CF911F910F910C94F2
:1009B000A90440E061E081EF92E00E94C2048BE371
:1009C0009FE10197F1F7089541E00E94C20481E0A0
:1009D00090E00895FB0101900020E9F73197AF0105
:1009E000461B570BDC01ED91FC910280F381E02D59
:1009F00009941F920F920FB60F9211242F933F93D9
:100A00004F935F936F937F938F939F93AF93BF9316
:100A1000EF93FF9388E492E00E94FC01FF91EF9135
:100A2000BF91AF919F918F917F916F915F914F9106
:100A30003F912F910F900FBE0F901F9018951F920E
:100A40000F920FB60F9211242F938F939F93EF93D2
:100A5000FF93E0915802F09159028081E0915E028B
:100A6000F0915F0282FD1BC09081809161028F5FD7
:100A70008F7320916202821741F0E0916102F0E0F1
:100A8000E85BFD4F958F80936102FF91EF919F91FD
:100A90008F912F910F900FBE0F901F90189580810E
:100AA000F4CF1F920F920FB60F9211242F933F9302
:100AB0008F939F93AF93BF938091F3019091F40133
:100AC000A091F501B091F6013091DB0123E0230FF5
:100AD0002D3758F50196A11DB11D2093DB018093A0
:100AE000F3019093F401A093F501B093F601809186
:100AF000DC019091DD01A091DE01B091DF01019652
:100B0000A11DB11D8093DC019093DD01A093DE0156
:100B1000B093DF01BF91AF919F918F913F912F9142
:100B20000F900FBE0F901F90189526E8230F029686
:100B3000A11DB11DD2CF1F920F920FB60F9211249B
:100B40002F933F934F935F936F937F938F939F93D5
:100B5000AF93BF93EF93FF938091B900887F803666
:100B600009F44AC0F0F5883209F4A7C018F58031BD
:100B700009F49BC0B8F4882309F4F9C0883009F45B
:100B800094C0FF91EF91BF91AF919F918F917F9111
:100B90006F915F914F913F912F910F900FBE0F90EA
:100BA0001F901895883109F488C0803251F78093DE
:100BB000210214C0803409F49DC040F48033B9F39D
:100BC0008833F9F68093210285ECB0C0803509F4B2
:100BD00085C0883509F496C0883499F60E94DC03F4
:100BE000D0CF883909F48CC038F5883729F050F413
:100BF000883611F0803729F683E080932302109223
:100C0000DA0157C0883809F47BC0803919F0803880
:100C100009F0B7CF8091DA01803208F071C0E0911D
:100C2000DA0181E08E0F8093DA018091BB00F0E061
:100C3000E654FE4F80833DC0803B39F0E0F4803ABB
:100C400009F479C0883A09F09CCF84E080932302AC
:100C50001092B9011092B801E091F901F091FA01F6
:100C600009958091B80181110FC081E08093B8018E
:100C70001092980109C0803C09F4A6CF883C09F481
:100C8000A3CF883B09F07DCFE091B90181E08E0FC1
:100C90008093B901F0E0E856FE4F80818093BB005D
:100CA0009091B9018091B80129C08091FE01809393
:100CB000BB0085EC8093BC0064CF909120028091B2
:100CC0001F02981758F5E091200281E08E0F809363
:100CD0002002F0E0E150FE4F8081E9CFE091200258
:100CE00081E08E0F809320028091BB00F0E0E15004
:100CF000FE4F80839091200280911F029817C8F2C6
:100D000085E8D8CFE091200281E08E0F8093200209
:100D10008091BB00F0E0E150FE4F80838091220281
:100D200081115CCF81E08093FD0184EA8093BC0057
:100D30001092230226CF85EC8093BC0010922302F0
:100D40008091DA01803230F4E091DA01F0E0E6548B
:100D5000FE4F10826091DA0170E0E091F701F091AE
:100D6000F8018AEB91E009951092DA010ACF10920E
:100D7000210234CF10924B0210924A0288EE93E087
:100D8000A0E0B0E080934C0290934D02A0934E02FD
:100D9000B0934F022FE131E0309349022093480293
:100DA00025EC30E0309355022093540224EC30E0DF
:100DB000309357022093560220EC30E030935902D2
:100DC0002093580221EC30E030935B0220935A02CA
:100DD00022EC30E030935D0220935C0226EC30E0A0
:100DE00030935F0220935E021092610210926202C1
:100DF00010926302109264021092E8021092E702CD
:100E00008093E9029093EA02A093EB02B093EC0284
:100E100081E391E09093E6028093E50260E085E053
:100E20000E944403E3EBF0E0E491E0938203EFE9F6
:100E3000F0E0E491F0E0EE0FFF1FE057FF4F8591E7
:100E40009491909384038093830310928D03109266
:100E50008F0310928E0310928C0310928B031092CA
:100E60008A031092890310928803109287031092CC
:100E700086031092850382E893E090937503809334
:100E80007403109272031092730310926C0389E042
:100E900080936F0381E080937003809371031092BD
:100EA00081031092800310926D031092FF02109242
:100EB000030310920203109204038FE491E09093D5
:100EC000FE028093FD02E9E1F3E0108214821382B6
:100ED0001582369683E0E535F807B9F783E091E0AF
:100EE0009093600380935F0380E091E090936203AE
:100EF0008093610384E08093630383E080936403C1
:100F000087E091E090935E0380935D038AE090E038
:100F1000909366038093650384EF91E09093680358
:100F20008093670310926B0310926A031092590327
:100F300010925A0310925B0310925C0310926903A3
:100F40001092F4021092F30283E491E09093F20283
:100F50008093F1028FE38093F50280E18093F902A0
:100F600082E08093FA021092FB0288E08093FC02F8
:100F70000895CF93DF93CDB7DEB7A1970FB6F8945E
:100F8000DEBF0FBECDBF789484B5826084BD84B5CA
:100F9000816084BD85B5826085BD85B5816085BD74
:100FA00080916E00816080936E001092810080912C
:100FB00081008260809381008091810081608093B4
:100FC0008100809180008160809380008091B100D9
:100FD00084608093B1008091B00081608093B00004
:100FE00080917A00846080937A0080917A00826098
:100FF00080937A0080917A00816080937A0080915A
:101000007A00806880937A001092C100E0915802C3
:10101000F091590212E01083E0915402F0915502D0
:101020001082E0915602F09157028FEC808310926B
:101030006002E0915C02F0915D0286E08083E091C5
:101040005A02F0915B02808180618083E0915A02B4
:10105000F0915B02808188608083E0915A02F09178
:101060005B02808180688083E0915A02F0915B028C
:1010700080818F7D808365E571E088E492E00E9445
:10108000EA0466E671E088E492E00E94EA0466E61B
:1010900071E088E492E00E94EA040E940E0381E07D
:1010A000809324028FE380934602109225021092CF
:1010B00047020E948C008823D1F01092F402109213
:1010C000F30287E28093F5028E818093F6028F818E
:1010D0008093F70288858093F80280E18093F9027B
:1010E0001093FA021092FB0288E08093FC020E94A7
:1010F0000E031092F6028091FA02823018F098E006
:101100009093F6029091FB02992339F0813029F4F3
:101110008091F60284608093F60262E370E080E0E2
:1011200090E00E94A9036091FC0281EF92E00E948E
:10113000930468EE73E080E090E00E94A90360E30E
:1011400081EF92E00E94A9040BE416E4C801019724
:10115000F1F760E381EF92E00E94A904C8010197D2
:10116000F1F760E381EF92E00E94A90483E592E049
:101170000197F1F760E281EF92E00E94A90460918B
:10118000F602606240E081EF92E00E94C20484E0D7
:101190008093F70240E06CE081EF92E00E94C2048D
:1011A0000E94D90482E08093F80240E066E081EF7B
:1011B00092E00E94C20440E062E081EF92E00E946F
:1011C000C2048BE39FE10197F1F788E08093FC0272
:1011D00060E081EF92E00E94930469E671E081EFA4
:1011E00092E00E94EA0422242A94322C5AE0452EEE
:1011F000512C612C712C51E0509369038FB7F894F6
:101200004091F3015091F4016091F5017091F60164
:101210008FBF8091590390915A03A0915B03B091C5
:101220005C03481B590B6A0B7B0B80916503909103
:101230006603B0E0A0E084179507A607B70708F09B
:1012400022C110E080916303181760F4E0915F03FE
:10125000F0916003E10FF11D62E080810E94440380
:101260001F5FF0CF912C80916403981608F063C043
:10127000E92CF12CE0916103F0916203EE0DFF1D6A
:1012800061E080810E944403E0916103F091620378
:10129000EE0DFF1D60E080810E94E00281E090E0A1
:1012A000A0E0B0E0092C04C0880F991FAA1FBB1F43
:1012B0000A94D2F75C016C01C094D094812C809187
:1012C0006303881608F5082D10E0E0915F03F091A4
:1012D0006003E00FF11F80810E94B4020C5F1F4F7A
:1012E000000F111FF801E350FD4F892B41F480815D
:1012F00091818A299B29918380838394E0CF808187
:1013000091818C219D21F7CFE0916103F0916203DF
:10131000EE0DFF1D61E080810E94E002809161037B
:1013200090916203E80EF91E60E0F70180810E944F
:101330004403939498CF2DEFE22E22E0F22E870102
:10134000F801878D90A1892B21F4148E368E258E7D
:1013500011A20A5F1F4FF3E009331F0789F7D12C51
:1013600080916303D81608F053C0C12CAD2CB12C6A
:10137000AA0CBB1CC5018B5F9C4F5C0120916403D0
:10138000C21608F043C0F501608171810C2C02C0C7
:10139000769567950A94E2F7D29E900111242C0D60
:1013A000311DEDEFF2E080E0458D568D24173507B5
:1013B00009F416C18F5F36968A30B1F760FF24C0FA
:1013C000EDEFF2E090E080E0448D411118C0E09133
:1013D0005D03F0915E03E20FF31F408156E0589FDA
:1013E000F001599FF00D1124E350FD4F448F368FCB
:1013F000258F10A2178E61E00E940E0105C0019694
:1014000036968A30910501F7C394B8CFD394A8CF0C
:1014100080E0F70191A19111892FF6E0EF0EF11C08
:101420000E151F05B1F79FB7F8944091F301509145
:10143000F4016091F5017091F6019FBF409359034B
:1014400050935A0360935B0370935C038823D9F035
:1014500080911E038823B9F080911C0390911D0395
:10146000019789F4F0901903F11010C080E090E02A
:10147000892B09F4C0CE0E94E801882309F4BBCE71
:101480000E940000B8CE10926903F0CF6F2D88E45F
:1014900092E00E941E0266E671E088E492E00E94FB
:1014A000EA045AE2F51609F47EC05F150CF45CC03C
:1014B00083E2F812DBCFE091F101F091F201E0520A
:1014C000FE4F108288E0E3E1F1E0DE011196019029
:1014D0000D928A95E1F78091FA02E1E0811101C055
:1014E000EFEFF0E0EE0FFF1F81E090E08C0F9D1F0B
:1014F000E80FF91F6081606840E081EF92E00E9490
:10150000C20480EE91E00E94F20A6C01990FEE088D
:10151000FF08F7FE4FC041E06DE281EF92E00E94CC
:10152000C20422273327A9012C193D094E095F095E
:1015300019A28E010F5D1F4FCA01B901A3019201CB
:101540000E94180B605DF80162938F01211531052F
:101550004105510589F70115110539F1B80181EFF0
:1015600092E00E94EA0421C080ED8F0D8A3008F0DD
:101570007DCF0091F1011091F2010115110511F4D7
:101580000E94D904C80101969093F2018093F10161
:10159000F801E052FE4FF08241E06F2D81EF92E0C2
:1015A0000E94C20463CF0E94D9041092F2011092EB
:1015B000F1015CCFA701960119A28E010F5D1F4FAB
:1015C000CA01B901A30192010E94180B605DF801E4
:1015D00062938F01211531054105510589F7BBCF74
:1015E00061700ACFFC0188279927E8942191203265
:1015F000E9F3293010F02E30C8F32B3241F02D32B0
:1016000039F4689404C00E94100B820F911D21913F
:1016100020532A30C0F31EF4909581959F4F089572
:101620007AE0979F902D879F802D910D112408952A
:10163000A1E21A2EAA1BBB1BFD010DC0AA1FBB1FD6
:10164000EE1FFF1FA217B307E407F50720F0A21B48
:10165000B30BE40BF50B661F771F881F991F1A94B5
:1016600069F760957095809590959B01AC01BD01DF
:10167000CF010895EE0FFF1F0590F491E02D09941E
:04168000F894FFCF0C
:101684000403020807060531323334353637383956
:101694002A30230000400014005400000000001E03
:1016A400027E01AB016B02DC01BA01CE0100000035
:1016B4000064043704A6040D0430041D040E040061
:1016C400000000E4047E01A604DB030000000080A7
:1016D400034003DD02496E707574204E696C6169C4
:1016E4002053756875000D0A00534554204E494C2B
:0816F4004149205355485500FF
:00000001FF
